:020000040800F2
:1000000018080020A9010008932B000829270008E0
:10001000912B000827140008AD2F000800000000F5
:10002000000000000000000000000000972B000806
:10003000BD14000800000000952B0008592D000891
:10004000C3010008C3010008C3010008C301000880
:10005000C3010008C3010008C3010008C301000870
:10006000C3010008C3010008C3010008C301000860
:10007000C3010008C3010008C3010008C301000850
:10008000C3010008C3010008C3010008C301000840
:10009000C3010008C3010008C3010008C301000830
:1000A000C3010008C3010008C3010008BD2D0008FA
:1000B000C92D0008C3010008C3010008C3010008DE
:1000C000C3010008C3010008C3010008C301000800
:1000D000C3010008C3010008C3010008C3010008F0
:1000E000C3010008C3010008C301000800F002F8C2
:1000F00000F04AF80AA090E8000C82448344AAF178
:100100000107DA4501D100F03FF8AFF2090EBAE875
:100110000F0013F0010F18BFFB1A43F0010318473B
:100120003042000050420000103A24BF78C878C125
:10013000FAD8520724BF30C830C144BF04680C60ED
:10014000704700000023002400250026103A28BF35
:1001500078C1FBD8520728BF30C148BF0B60704739
:10016000662904F07C80642900F07A8000207047C2
:100170001FB500F01BFC04000020002103F06CF907
:10018000E0601FBD10B510BD00F010FD1146FFF777
:10019000EFFF03F0B7F800F02EFD03B4FFF7F2FF16
:1001A00003BC00F071FD0000094880470948004782
:1001B000FEE7FEE7FEE7FEE7FEE7FEE7FEE7FEE717
:1001C000FEE7FEE704480549054A064B7047000074
:1001D000BB2D0008ED0000081802002018080020C0
:1001E00018040020180400200FB41CB5074B06AA01
:1001F0007B4469460090059800F0BFFB00206946EB
:1002000000F0CEFB1CBC5DF814FB0000AD07000045
:1002100070B5044685690068C10601D5302600E046
:100220002026C00707D070BDD4E901213046904791
:10023000206A401C20626D1EF6D570BD70B5044664
:1002400085690078C00707D170BDD4E9012120205D
:100250009047206A401C20626D1EF6D570BD0000DC
:100260002DE9F0410646002410687529314616A58F
:1002700010D0AFF30080002802DA404213A507E057
:1002800031688A0701D512A502E0490704D511A5F6
:10029000012401E0AFF3008000210A2206F12407C7
:1002A00009E0B0FBF2FCB0FBF2F302FB1C003030C3
:1002B00078541846491C0028F3D123462A46304674
:1002C000BDE8F04100F0EBB8000000002D00000098
:1002D0002B000000200000002DE9F0474FF0000A3D
:1002E00089460446C0F820A02046E16888470028D7
:1002F00076D0252806D0D4E901219047206A401CF9
:100300002062F1E7E168204600258847C4F81CA078
:1003100006460027C4F818A02A2E09D0304602F05D
:100320006AFE38B304EB8708303EC8F8186019E05D
:1003300059F8041B204604EB87029161E168884765
:10034000012F064618D1E069002820DA25F02005A3
:100350001DE0D8F8180000EB800006EB40003038B4
:10036000C8F818002046E1688847064602F043FEB8
:100370000028EED1012F0AD02E2E08D12046E168A8
:1003800088477F1C0646022F45F02005C4DBA06984
:10039000002803DA404245F00105A061E80701D0DA
:1003A00025F01005B6B1A6F14100192802D8203673
:1003B00045F400654A463146204625604D46FFF724
:1003C000CFFE58B1012806D0ED1D25F0070000F141
:1003D000080989E704E005F1040985E730468AE762
:1003E000206ABDE8F08710B5203AC0F00B80B1E874
:1003F0001850203AA0E81850B1E81850A0E818505A
:10040000BFF4F5AF5FEA027C24BFB1E81850A0E862
:10041000185044BF18C918C0BDE810405FEA827C7C
:1004200024BF51F8043B40F8043B08BF7047D20793
:1004300028BF31F8023B48BF11F8012B28BF20F834
:10044000023B48BF00F8012B70474FF0000200B597
:10045000134694469646203922BFA0E80C50A0E8E7
:100460000C50B1F12001BFF4F7AF090728BFA0E895
:100470000C5048BF0CC05DF804EB890028BF40F861
:10048000042B08BF704748BF20F8022B11F0804FA3
:1004900018BF00F8012B70477047704770472DE96F
:1004A000F0470D4699469246044600F1240801683B
:1004B000880604D5E06921F01001216000E00120E8
:1004C000A84201DD471B00E00027A1697A1902EB71
:1004D0000900081AA0612078C00602D42046FFF760
:1004E00097FE002608E0D4E901211AF8060090479B
:1004F000206A401C761C20624E45F4DB2078C00642
:100500000AD52046FFF784FE06E0D4E90121302019
:100510009047206A401C2062381EA7F10107F4DCD6
:1005200007E0D4E9012118F805009047206A401C33
:100530002062281EA5F10105F3DC2046FFF77EFEB0
:100540002078000602D50220BDE8F0870120FBE7F5
:1005500070472DE9FF4F0C461E464FF0FF378BB01A
:10056000D2E90001DDF860800A908A46C1F30A559D
:1005700005B93D46002108464FF00000BAF1000FD2
:1005800000F4400005DA00EB80004FF4400101EA7E
:1005900050004FEA9059B9F1010F00DDB9460A98B1
:1005A00050EA4A000ED044F61050A5F2FF354543FC
:1005B0002F14B8F1000F1ED07542291E1EDDC9F19F
:1005C00000021CE0B8F1010F4FF0000001D0302113
:1005D00003E0F24305E02154401CB042FBDB30460F
:1005E0000022002121540B99C1F80880C1E90020A4
:1005F0000FB0BDE8F08FBD1B6D1CDEE74A4600DA88
:10060000694206A800F05CFA06AB93E8070003AB6A
:1006100083E8070050460A9900F03DFB8DE807008B
:10062000A0F500501F3800900398002D0ADD42F21B
:100630001F014A460844002303A90390684600F0BE
:10064000A6FD09E0A0F500504A461F38002303A983
:100650000390684600F0B0FD8DE807000004000C30
:1006600003D04FF0FF30410800E01046B8F1000F12
:1006700003D00022009215461EE0751E05D400F03E
:1006800099F9303262556D1EF9D5B34601220843FF
:1006900002D000227F1C04E02078302801D1002203
:1006A0007F1E002A099784D01DE0112D07DA00F083
:1006B00081F9303262556D1C50EA0102F5D10843D0
:1006C00002D00098C8B10EE00021681E05E0235C4E
:1006D000625C63542254401E491C8142F7DBAB46E6
:1006E000A81B401E0990002004F80B000B98099AE3
:1006F000C0F80880C0E9002B7AE711264FF0000807
:1007000057E72DE9F04F88460446D21D22F0070135
:1007100091B0D1E90001CDE90A0102F048FC02469E
:100720000B98C00F01D02D2007E02068810701D56C
:100730002B2002E0202101EAC000032A099001D009
:10074000072A05DB03464146204600F079F90BE114
:100750002078800601D5E06900E00620B8F1650F39
:10076000814606D0B8F1660F18D0B8F1670F70D186
:1007700031E00020B9F1110F009001DB112301E0FD
:1007800009F101030AAA01A90CA8FFF7E2FEDDE9BD
:100790000C70002609F10105834647E001204B4615
:1007A00000904FF000470AAA01A90CA8FFF7D1FE5C
:1007B000DDE90DB00C995D46002610B909F1010084
:1007C0000D18B9EB050003D4C0F1FF3609F101059E
:1007D000A5EB09002BE0B9F1010F01DA4FF0010997
:1007E0000020B9F1110F0090484601DD112300E00F
:1007F00003460AAA01A90CA8FFF7ABFEDDE90C70BD
:100800004D4600268346207800070AD4AB4500DA1F
:100810005D4601A8012D04DD411911F8011C3029A4
:1008200007D04F4502DA17F1040F04DA012082469F
:100830000FE06D1EEEE7002F02DCED1B3E4403E0EF
:10084000781CA84200DD7D1CB81B00F1010A4FF0A6
:1008500000472078000703D4AA4501DB4FF0FF3A98
:100860000021B7F1004F0DF143088DF8431024D05B
:1008700002202B23002F01DA7F422D230A21021EA2
:10088000A0F1010000DC5FB197FBF1FC97FBF1F2F6
:1008900001FB1C7C17460CF1300C08F801CDEEE78B
:1008A000A8F1010003702188090501D5452100E068
:1008B0006521A0F1010800F8011C09980FA9A1EB1E
:1008C0000807FF1D00B10120411901EBEA70A16981
:1008D0003844081A401EA0612078C00602D4204681
:1008E000FFF796FC099828B1D4E901219047206AC6
:1008F000401C20622078C00622D52046FFF788FCE5
:100900001EE0002E04DBB34502DD01A8805D00E09F
:100910003020D4E901219047206A401C2062761CD7
:10092000AAF101005FEA000A0AD100F03FF8C068AE
:100930000168405CD4E901219047206A401C206294
:10094000281EA5F10105DCDC07E0D4E9012118F837
:10095000010B9047206A401C2062381EA7F1010756
:10096000F3DC2046FFF76AFC032011B041E60000EB
:1009700001694A1C02610878704700B58FB0CDE963
:1009800001310021059105497944CDE90310114653
:100990006846FFF7A1FC0FB000BD0000E5FFFFFFB8
:1009A0000A6802F8010B0A607047000000487047AF
:1009B000D401002030B5B0F10A024FEA900E71F177
:1009C00000034EEA817EB0EB0E0061EB91014FEA2D
:1009D000101E4EEA017E10EB0E0041EB11114FEAA2
:1009E000102E4EEA016E10EB0E0041EB11214FEA82
:1009F000104E4EEA014E10EB0E0041EB1141401833
:100A000041F100014FEAD00040EA41704FEAD101C4
:100A100010EB80054FEA810444EA907444EB010432
:100A20006D1944EB0404521BA3414FF0000348BF6F
:100A30000A3200D530BD401C41F1000130BD00003C
:100A40002DE9F0411F46044603260168072A01F4F8
:100A5000006004DB08B116A505E016A503E008B1A7
:100A600015A500E015A521F010002060A069C01EAA
:100A7000A0610FB1401EA0612046FFF7C9FB4FB136
:100A8000D4E9012138469047206A401C2062C01CEE
:100A9000206206E0206AFAE7D4E9012115F8010B8B
:100AA0009047761EF8D22046FFF7C8FBBDE8F081DC
:100AB0004E414E006E616E00494E4600696E660002
:100AC0002DE9F047814616468AB0354878440DC86E
:100AD0008DE80D0032487844801C03AC0DC884E8D2
:100AE0000D0041F69B300844372190FBF1F290FB5A
:100AF000F1F5A5F1800501FB12041B3C02D564420F
:100B0000012000E00020DFF898A080460027FA448A
:100B1000AAF1BE0A0EE0E0070AD03246684607EBAB
:100B2000470101230AEB810100F046FB8DE8070035
:100B300064107F1C002CEED1194F7F44AE3F19E0AA
:100B4000E80715D007EB04100DF1180A90E80E0025
:100B50008AE80E00C068F04201D198190890324628
:100B6000012306A903A800F027FB03AB83E80700D5
:100B70006D10641C002DE3D14FF00103324669462D
:100B8000B8F1000F03A802D000F001FB01E000F073
:100B900013FBC9E90001C9F808200AB0BDE8F087D5
:100BA0006838000000487047B40100207546FFF720
:100BB000F9FFAE4605006946534620F0070085461A
:100BC00018B020B5FFF7FEFABDE820404FF0000650
:100BD0004FF000074FF000084FF0000B21F0070125
:100BE000AC46ACE8C009ACE8C009ACE8C009ACE868
:100BF000C0098D46704710B50446AFF3008020460B
:100C0000BDE81040FFF7C9BA4FF0013C50F8042B83
:100C100051F8043B9A4221D1A2EB0C03934313EA0F
:100C2000CC1317D150F8042B51F8043B9A4215D13C
:100C3000A2EB0C03934313EACC130BD150F8042B13
:100C400051F8043B9A4209D1A2EB0C03934313EAF7
:100C5000CC13DBD04FF00000704700BFD01A01BAB0
:100C6000B1FA81F101F0180122FA01F0CB40C1F193
:100C70002001DBB2C0B2C01A2CFA01F3D11A9143A1
:100C800011EAC311E6D1704701491820ABBEFEE757
:100C90002600020070475FEA400C08BF91F0000F89
:100CA0004FEA8C234FEAC12243EA51514FEA1C50CC
:100CB00018BF00F5F0404FEA300018BF41F0004186
:100CC0005FEA6C5C00F02980BCF1FF3F08BF40F098
:100CD00080407047130C06BF12044FF0100C4FF009
:100CE000000C130E04BF12020CF1080C130F04BF0A
:100CF00012010CF1040C930F04BF92000CF1020CD2
:100D0000D30F04BF52000CF1010C11464FF000024A
:100D1000A0F11F00A0EB0C00704711F0004F08BFBE
:100D2000704731F000413FF4D5AF0B0C06BF09040A
:100D30004FF0100C4FF0000C0B0E04BF09020CF129
:100D4000080C0B0F04BF09010CF1040C8B0F04BF3E
:100D500089000CF1020CCB0F04BF49000CF1010C0F
:100D6000CCF12003A0EB0C0022FA03F302FA0CF200
:100D700041EA030100F10100704720F07F4C80EA56
:100D8000030023F07F47ACEB070303F57C5300F02F
:100D9000004003F1FF032DE980494FEA154B09B4E8
:100DA0004FEA144325EA0B4E24EA03480FF20426C7
:100DB00006EB132749083E785FEA320203FB066719
:100DC000C7F5000707FB06F64FEA54374FEAD64649
:100DD00006F1020607FB066CCCF1005C4FEA1C47EB
:100DE0002CEA074C07FB06F40CFB06F504EB154652
:100DF0004FEA961634BF00204FF000404FEAD1373B
:100E000006FB07FC4FEA1C4C0CFB0BF7D21B03FB49
:100E10000CF761EB07010CFB0EF7B0EB074072EB30
:100E200017420CFB08F734BFA2EB0742B2EB0742B4
:100E300061EB17414FEA0C444FEA910706FB07FCB0
:100E40004FEA1C4C0CFB0BF7B0EBC74072EB573270
:100E500003FB0CF734BFA2EBC742B2EBC74261EB16
:100E600057310CFB0EF7B0EBC70072EB57720CFB5F
:100E700008F734BFA2EBC702B2EBC70261EB5771B0
:100E8000039F4FEA816141EA921104EBCC044FEADF
:100E9000D1374FEA826206FB07FC42EA90124FEA22
:100EA00080604FEA1C4C0CFB0BF7D21B03FB0CF7CA
:100EB00061EB07010CFB0EF7B0EB074072EB17423A
:100EC0000CFB08F734BFA2EB0742B2EB074261EB21
:100ED00017414FEA8C554FEA910704EB9C2406FB1F
:100EE00007FC4FEA1C4C0CFB0BF7B0EBC74072EB56
:100EF000573203FB0CF734BFA2EBC742B2EBC74239
:100F000061EB57310CFB0EF7B0EBC70072EB577279
:100F10000CFB08F734BFA2EBC702B2EBC70261EBD0
:100F2000577115EB4C254FEA816141EA92114FEA66
:100F300082624FEAD13742EA901206FB07FC44F185
:100F400000044FEA80604FEA1C4C0CFB0BF7D21BED
:100F500003FB0CF761EB07010CFB0EF7B0EB07404E
:100F600072EB17420CFB08F734BFA2EB0742B2EB5F
:100F7000074261EB174115EB1C154FEA813141EA3D
:100F800092414FEA823242EA90424FEA80304FEA81
:100F90000C7644F1000448EA03434EEA0B484FF054
:100FA000000EB2EB080C71EB030724BF6246394612
:100FB0004EEB0E0E4FF0000B0018524149414BEB27
:100FC0000B0BB2EB080C71EB03077BF1000B24BF9A
:100FD000624639464EEB0E0E4FF0000B00185241A0
:100FE00049414BEB0B0BB2EB080C71EB03077BF1A8
:100FF000000B24BF624639464EEB0E0E51EA020743
:1010000018BF46F0010616EB0E7655F1000254F1BA
:10101000000103D5BDE88901BDE80088BDE889016C
:10102000BDE80048B619524141EB0101A3F10103AB
:10103000704780807F7E7D7C7B7A79787776767545
:101040007473727171706F6E6E6D6C6C6B6A6A69BD
:101050006868676666656464636362616160605F57
:101060005F5E5E5D5D5C5C5B5B5A5A5959585857D0
:101070005756565555555454535352525251515038
:1010800050504F4F4F4E4E4D4D4D4C4C4C4B4B4B8B
:101090004A4A4A49494948484847474747464646D1
:1010A000454545444444444343434342424242410C
:1010B0004141002B9C4630D477002BD01CB54FEA21
:1010C000370703B44FF010004FF01001BAF1000FD2
:1010D00006D0BCF1000FDCBF40F0080040F0080172
:1010E0004FF000000FBCBDE810400BF1010BBBF14D
:1010F000010F08BF5FEA170722BF12F1010211F1C9
:1011000001014FF0004143F1000300F0004043EAC9
:1011100000007047F9D35708D0E746EA064613F1B6
:10112000400F4FEA16461FDD13F1200FDFBF1643B5
:101130000A46002120335B42BED0C3F1200746EAB5
:10114000064602FA07F74FEA164646EA0706C3F1D3
:10115000200722FA03F201FA07F721FA03F14FF010
:10116000000342EA0702A7E746EA020646EA064605
:101170004FEA164646EA0106BCBF46EA0646360C6A
:101180004FF000034FF000024FF0000194E72DE90B
:10119000804C9A46934670B491E8380007C831EA0B
:1011A000400C48BF34EA430C03D5FFF7E6FDFFF7D8
:1011B00080FFF0BCBDE8008C2DE9804C9A46934638
:1011C00070B491E8380007C810F0804F08BF13F0E2
:1011D000804F03D100F005F8FFF76BFFF0BCBDE8CE
:1011E000008C20F07F4780EA030023F07F4C07EB60
:1011F0000C03A3F57C5300F00040A3F1FE0392F032
:10120000000F00F0B38095F0000F00F077802DE91B
:1012100001494FEA11404FEA144621EA004800FB19
:1012200006FC24EA064708FB06F607FB08F800FB65
:1012300007F718EB06484CEB164C4FEA124B18EB2D
:1012400007484FEA15464CEB174022EA0B4E0BFBC2
:1012500006FC25EA06470EFB06F607FB0EFE0BFB17
:1012600007F71EEB064E4CEB164C4FF000061EEB3C
:10127000074E4CEB174B18EB0B0840F1000018EB36
:101280000E0B58EB000840F100008F1A4FF00001E0
:101290003CBFC943661B14BFB5EB040C00213CBF27
:1012A000C943F61B4FEA17444EEA8E0E27EA04455F
:1012B0004FEA1C4704FB07622CEA074C05FB07F7C3
:1012C0000CFB05F604FB0CFC16EB074642EB174241
:1012D00016EB0C4642EB1C421BEB060658EB0202D7
:1012E000414146EA9E0601D5BDE80189B619524141
:1012F00041EB0101A3F10103BDE801894FEA144567
:101300004FEA114724EA054621EA074C05FB07F49A
:1013100006FB07F70CFB06F105FB0CFC11EB074184
:1013200044EB17444FEA124711EB0C4144EB1C44C9
:1013300022EA074C05FB07F206FB07F70CFB06F653
:1013400005FB0CFC16EB074642EB174216EB0C466E
:1013500042EB1C456A1854F1000148BF7047B619AA
:10136000524141EB0101A3F10103704795F0000FD9
:1013700037D04FEA11424FEA144721EA024624EAE5
:10138000074C02FB07F106FB07F70CFB06F402FB18
:101390000CFC14EB074441EB17414FEA154714EBE3
:1013A0000C4441EB1C4125EA074C02FB07F506FB08
:1013B00007F70CFB06F602FB0CFC16EB074645EBA9
:1013C000174516EB0C4645EB1C42121951F1000172
:1013D00048BF7047B619524141EB0101A3F1010327
:1013E00070474FEA14454FEA114724EA054621EABF
:1013F000074C05FB07F106FB07F70CFB06F24FF065
:10140000000605FB0CFC12EB074241EB174112EB07
:101410000C4251EB1C4148BF7047921841EB01014F
:10142000A3F101037047FEE72DE9F0418CB03022B3
:1014300021496846FEF7D7FF00F0D8F90025044699
:10144000A8466E4606EB0517B988386800F0C4F95F
:101450000146B868027A8A4213D00268A21A142A96
:1014600025D90460017211B1417A21B100E04460D4
:1014700080F809801BE006EB0510007B0CB0BDE88E
:10148000F081A1B9797B91B1417A41B10168611ACA
:1014900032290CD3046006EB0510407BEEE741686F
:1014A000611AB1F5FA6F02D301214172F2E76D1CA6
:1014B000032DC7DB0020E1E78C42000870470000E5
:1014C0002DE9F0473B4F0821384600F085F93A4CAA
:1014D0000646607801286AD1002E68D100F086F9AE
:1014E0006168401A052862D910213846A56800F0C5
:1014F00073F90200314822784FF07C514FF4000715
:1015000003D08AB1012A24D04EE012B1012A07D0BB
:101510004AE0A068B8420FDB284602F02BFE0AE042
:10152000016BE1B3491E16E0254AA068904203DA38
:10153000284602F0FBFB05462846A16802F01AFE89
:10154000204A20F0004191422EDBB84205DA01200A
:1015500004E0016B491C016326E00020174F3C3F6B
:1015600087F82C000846203702F0B4FB0022164B07
:1015700002F0C8F9154A164B02F02CF8804689464D
:10158000386802F0ACF942464B4601F07BFF02F0AE
:1015900079F93860A5603879012805D100E003E0C9
:1015A000A7F1200001F042FB00F020F960606670B6
:1015B000BDE8F087000C0140000000207801002009
:1015C0000000A0410AD7233C000069409A999999EC
:1015D0009999C93F70B5044600F008F90546601CAA
:1015E00002D004480078044400F000F9401BA042F7
:1015F000FAD370BD1C0000202DE9F84FDFF8B89138
:101600000024A9F1040B23460F2709F1040AABF1CA
:10161000040EC9E00125A5402A40AA427DD1674EAB
:10162000D1F804C0ACEB0608B44532D014DCBCF1F0
:10163000030F3AD009DCBCF1000F2AD0BCF1010F36
:101640001CD0BCF1020F31D11DE0BCF1110F17D03D
:10165000BCF1120F2AD119E0B8F5881F19D006DCA9
:10166000B8F5803F15D0B8F5801F1FD111E0B8F54F
:10167000001F0ED0B8F5041F18D10AE0CB6815E0A2
:10168000CB681B1D12E0CB6808330FE0CB680C332E
:101690000CE08B682BB1012B4FF0080303D04561A0
:1016A00004E0042302E0056100E00023FF2A01D8E2
:1016B000064601E000F104064FEA840501D9A5F1D0
:1016C0002005D6F8008007FA05FC28EA0C0803FA82
:1016D00005F548EA0508C6F800804D68ED0062D5BA
:1016E000374DAE6946F00106AE61AD6924F00306E0
:1016F00005F001050095334D06EB050CDCF80850AC
:10170000A607360F07FA06F825EA0805DFF8B880BD
:10171000404503D14FF0000817E044E0DFF8AC800B
:10172000404502D14FF001080FE0DFF8A4804045AA
:1017300002D14FF0020808E0DFF89880404502D15E
:101740004FF0030801E04FF0040808FA06F848EAF1
:101750000508CCF808804D68D9F80060ED024D46C8
:1017600001D5164300E096432E604D68DAF800601C
:10177000AD02554601D5164300E096432E604D68F4
:10178000DBF80060AD035D4601D5164300E09643EB
:101790002E604D68DEF80060ED03754601D51643F6
:1017A00000E096432E60641C0D682A46E5407FF4F5
:1017B00031AFBDE8F88F00000804014000001110AF
:1017C000001002400000014000080140000C0140F0
:1017D00000100140001401408068084000D0012042
:1017E00070470AB1016170470904FBE7014880684E
:1017F000704700001C00002070B5040025D094F84C
:101800003D00002520B984F83C50204600F04EF9F8
:10181000242084F83D002068016821F00101016066
:101820002068016841F4004101602068016821F4EA
:101830000041016000F096FA4D4A6168914201D87A
:101840004C4900E04C49884201D2012070BD4B490F
:101850002368B0FBF1F15E6826F03F060E435E6040
:101860006368934206D94FF4967359434FF47A73E1
:10187000B1FBF3F12368491C1E6A26F03F06314391
:1018800019626168914210D84900401EB0FBF1F224
:10189000521CC2F30B02042A01D2042022E0B0FB46
:1018A000F1F0401CC0F30B001CE0A268F2B301EBA6
:1018B000C10303EB0116431EB3FBF6F35B1C43F4B9
:1018C00080431B0549D092B301EBC10202EB011129
:1018D000401EB0FBF1F0401CC0F30B0040F4804010
:1018E00040F400402168CA694CF6FF739A431043E4
:1018F000C861D4E9071001432068026822F0C002E1
:1019000011430160D4E9030101432068826848F271
:10191000FF339A4311438160D4E9050108432168EC
:10192000CA6822F0FF021043C86001E00EE016E032
:101930002068016841F0010101602564202084F8DD
:101940003D00256384F83E50002070BD01EB410648
:10195000431EB3FBF6F35B1CB3E70120C2E701EBC8
:101960004101401EB0FBF1F0401CC0F30B00B7E793
:10197000A086010080841E0000093D0040420F0047
:101980002DE9F84F1F4690468A460446DDF8289018
:10199000FFF72CFF054694F83D0020287FD119233E
:1019A000012240492046009500F050FF002876D1E2
:1019B00094F83C00012872D0012084F83C00206893
:1019C0000168C90703D1016841F001010160206885
:1019D000016821F400610160212084F83D0010209D
:1019E00084F83E0000262664C4F824806785608D54
:1019F00020852D48E0622B464A465146204600F09D
:101A0000ABFE90B9206841698069009036E02A46B3
:101A10004946204600F0C0FF50B1206C042804D194
:101A20002068016841F4007101600120BDE8F88F71
:101A3000606A216800780861606A401C6062618D9C
:101A4000491E6185218D491E89B22185226853690D
:101A5000DB435B070BD451B100781061606A401C16
:101A60006062608D401E6085208D401E20852A4664
:101A70004946204600F0BEFE0028CED1208D002829
:101A8000C5D154F83D0B016841F40071016020207C
:101A900004F81E09E67766770020C7E7FFE7022013
:101AA000C4E70000020010000000FFFF10B586B080
:101AB0000021009101910291039100680F49884231
:101AC0001AD10F4CA06940F00800A061A0696946D6
:101AD00000F008000490C020009012200190032024
:101AE00003900848FFF788FDE06940F40010E061CA
:101AF000E06900F40010049006B010BD00540040EE
:101B000000100240000C0140024881680278114434
:101B1000816070471C000020074810B5016841F043
:101B200010010160032000F075F80F2000F006F8A6
:101B300000F024F8002010BD0020024070B50D4DCB
:101B400004464FF47A712878B1FBF0F00A4909682D
:101B5000B1FBF0F000F0CCFA48B9102C07D200220B
:101B60002146501E00F036F800206C6070BD012048
:101B700070BD00001C000020280000200C4808B5A3
:101B8000816941F001018161816901F001010091E8
:101B9000C16941F08051C161C06900F0805000907E
:101BA0000448416821F0E06141F00071416008BDE6
:101BB0000010024000000140002809DB00F01F0275
:101BC000012191404009800000F1E020C0F800119F
:101BD00070470000F0B40E4B1B680C46C3F30223A1
:101BE000C3F10705042D00D90425191D072901D2C9
:101BF000002300E0DB1E012606FA05F1491E214004
:101C000099409E40761E16403143F0BC01F0E3B986
:101C10000CED00E0064900F0070208684FF6FF03EC
:101C2000184040EA0220034A104308607047000051
:101C30000CED00E00000FA052DE9F0470F46050025
:101C400061D0434E306800F00700B84209D23068D6
:101C500020F0070038433060306800F00700B842D9
:101C600051D128683B4C810712D5400703D56068E5
:101C700040F4E06060602878000703D5606840F4B5
:101C8000605060606068A96820F0F0000843606000
:101C90002878C00728D06868012810D02168022859
:101CA00010D0890700292EDA616821F00301014371
:101CB0006160FFF79BFD804641F288390DE02168A5
:101CC0008903EFE78901EDE7FFF790FDA0EB08013D
:101CD000494502D90320BDE8F0876068696800F0D3
:101CE0000C00B0EB810FEFD1306800F00700B84274
:101CF0000BD9306820F0070038433060306800F0BE
:101D00000700B84201D00120E5E72878400705D553
:101D10006068E96820F4E0600843606028780007A4
:101D200006D56068296920F4605040EAC10060600F
:101D300000F028F86168084AC1F30311515CC840FB
:101D40000649086006480068FFF7F8FE0020C2E771
:101D500000200240001002407442000828000020C9
:101D6000200000200448054900684968044AC1F37E
:101D70000221515CC840704728000020001002403A
:101D8000844200080E4A51680E4801F00C03042BEF
:101D900011D0082B0FD10C48C1F38343C903C05C99
:101DA0000AD55168084AC1F34041921E515C054A68
:101DB0005043B0FBF1F070470449484370470000BE
:101DC0000010024000127A006442000800093D0041
:101DD0002DE9F84F040070D02078C04DC00749D0DD
:101DE0006868C0F38100012807D06868C0F38100EB
:101DF000022809D16868C00306D52868800339D550
:101E000060680028E7D035E06068B0F5803F0BD00F
:101E100010B1B0F5A02F11D0286820F480302860D0
:101E2000286820F4802002E0286840F48030286090
:101E3000606890B1FFF7DAFC06460AE0286840F4D3
:101E400080202860F0E700BFFFF7D0FC801B6428EB
:101E500073D828688003F7D50CE0FFF7C7FC064667
:101E600005E000BFFFF7C2FC801B6428F0D828689B
:101E70008003F7D420789A4E80074FF001094FF085
:101E8000000839D5686810F00C0F07D06868C0F3F7
:101E90008100022809D16868C00306D42868800739
:101EA00014D52069012808D110E02069B0B1C6F826
:101EB0000090FFF79BFC074605E00AE1FFF796FC60
:101EC000C01B0228C4D828688007F7D52868616934
:101ED00020F0F80040EAC10028600DE0C6F800805C
:101EE000FFF784FC074604E0FFF780FCC01B0228D4
:101EF00023D828688007F7D4207800072CD57948A4
:101F0000A169D9B1C0F80090FFF770FC074604E062
:101F1000FFF76CFCC01B02280FD8686A8007F7D552
:101F200071484FF4FA510068B0FBF1F0009000BF27
:101F30000098411E0091FAD20EE080E0C0F80080C7
:101F4000FFF754FC074604E0FFF750FCC01B0228D3
:101F500075D8686A8007F7D42078400760D5E869AB
:101F60000027C00008D4E86940F08050E861E869C3
:101F7000012700F0805000905C480168C90513D427
:101F80000168834641F480710160FFF72FFC8246AF
:101F900006E000BFFFF72AFCA0EB0A0064284ED839
:101FA000DBF80000C005F5D5E06801280AD008B1CB
:101FB000052813D0286A20F001002862286A20F042
:101FC000040002E0286A40F001002862E06841F263
:101FD000883B98B1FFF70AFC82460BE0286A40F084
:101FE00004002862EEE700BFFFF700FCA0EB0A0147
:101FF00059455AD8286A8007F6D50CE0FFF7F6FB5A
:10200000824605E0FFF7F2FBA0EB0A0159454CD8E8
:10201000286A8007F6D41FB1E86920F08050E86193
:10202000E06988B36968C1F38101022944D00228BC
:10203000C6F8608004D0FFF7D9FB044638E034E0EE
:10204000FFF7D4FB074604E0FFF7D0FBC01B0228D4
:102050002BD828688001F7D4206AB0F5803F05D1DD
:102060006868A16820F4003008436860D4E908017A
:102070000843696821F4741108436860C6F86090E9
:10208000FFF7B4FB044606E025E000BFFFF7AEFB18
:10209000001B022809D828688001F7D51BE000BF83
:1020A000FFF7A4FB001B022802D90320BDE8F88F2C
:1020B00028688001F4D40EE00128F7D06868226A0D
:1020C00000F48031914204D1616A00F470108842BA
:1020D00001D00120EAE70020E8E7000000100240FC
:1020E000000042428004424228000020007000406C
:1020F00010B5401EB0F1807F01D3012010BD4FF01C
:10210000E02460610F21601700F065FF0020A061EE
:1021100007202061002010BD7047704710B590F86F
:102120003C20012A22D0012280F83C20CA688C6819
:1021300022F4407222434C6822F4806222430C68ED
:1021400022F4006222430C6922F4805222434C693B
:1021500022F400522243C969002322F480420A4338
:1021600001684A6480F83C30002010BD022010BD98
:1021700070B590F83C20012A26D0012480F83C401C
:10218000022280F83D2003685A689D6822F070069C
:102190000A6832435A600D4B02689A4208D0B2F185
:1021A000804F05D00A4B9A4202D00A4B9A4204D182
:1021B000496825F080031943916080F83D40002173
:1021C00080F83C10084670BD022070BD002C014014
:1021D000000400400008004070472DE9F04104462B
:1021E0000068C66805694FF00007A90713D5B10755
:1021F00011D5F91E016101202077206880698007D0
:10220000204602D0FFF7E8FF04E000F0C3F82046C4
:1022100000F084F92777680716D5700714D5216870
:102220006FF004000861022020772068806910F4B4
:10223000407F204602D0FFF7CFFF04E000F0AAF86D
:10224000204600F06BF92777280715D5300713D5FE
:1022500021686FF008000861042020772068C069B9
:102260008007204602D0FFF7B7FF04E000F092F8A5
:10227000204600F053F92777E80616D5F00614D566
:1022800021686FF010000861082020772068C0697D
:1022900010F4407F204602D0FFF79EFF04E000F0DC
:1022A00079F8204600F03AF92777E80708D0F007D8
:1022B00006D021686FF001000861204600F032FA74
:1022C000280608D5300606D521686FF08000086121
:1022D0002046FFF721FF680608D5700606D521685D
:1022E0006FF040000861204600F01DFAA8060AD5EC
:1022F000B00608D521686FF0200008612046BDE8CF
:10230000F041FFF70ABFBDE8F081000010B586B0CC
:10231000002100910191029103911A4C03681A491E
:1023200002221A48A34210D18B6943F004038B6147
:102330008969039201F0040104918115CDE900122D
:102340006946FFF759F906B010BDB3F1804FFAD1D5
:102350008B6943F004038B618969039201F00401E6
:1023600004914FF40041CDE900126946FFF744F9AA
:102370000748416821F4407141F0E06141F4807107
:102380004160E0E7002C01400010024000080140DD
:1023900000000140704770B5044690F83C000026EC
:1023A0000D4601280FD0012084F83C006AB1042AB0
:1023B0001DD0082A2FD00C2A3FD00126002084F8F7
:1023C0003C00304670BD022070BD206800F04CFD1E
:1023D0002068816941F0080181612068816921F0EC
:1023E00004018161206881692A69114311E0206834
:1023F00000F062FD2068816941F40061816120681C
:10240000816921F480618161206881692A6941EADA
:1024100002218161D2E7206800F07AFD2068C1695D
:1024200041F00801C1612068C16921F00401C16166
:102430002068C1692A69114311E0206800F094FD09
:102440002068C16941F40061C1612068C16921F45B
:102450008061C1612068C1692A6941EA0221C161C4
:10246000ACE710B5040003D094F83D0010B107E0CC
:10247000012010BD002084F83C00204600F01EF82A
:10248000022084F83D00211D206800F0A3FC0120FB
:1024900084F8460084F83E0084F83F0084F8400049
:1024A00084F8410084F8420084F8430084F8440032
:1024B00084F8450084F83D00002010BD08B5154A99
:1024C0000168154891420ED1816941F40061816132
:1024D0008069002200F40060009011461B20FFF785
:1024E00079FB1B2010E0B1F1804F11D1C16941F09F
:1024F0000101C161C069002200F0010000900121CA
:102500001C20FFF767FB1C20BDE80840FFF754BB09
:1025100008BD0000002C0140001002402DE9F041F0
:102520000024214D0746264655F82400B0B3016823
:10253000B94233D190F8241081BB8169491C816173
:1025400055F824008169C16155F82400016BC9B1B7
:10255000FFF74CF9014655F82400426B891A816354
:102560004FF47A72B1FBF2F155F82400026B9142FC
:1025700014D300F011FB55F82400066355F824002D
:10258000866308E08169026A914207D300F004FB88
:1025900055F82400066255F824008661641CE4B2F4
:1025A000022CC1D3BDE8F0815000002030B50025D9
:1025B0000446022249B1042912D008293ED094F8D9
:1025C0004100012845D0012030BD94F83E0001288B
:1025D000F9D184F83E202068C26842F0020209E086
:1025E00094F83F000128EED184F83F202068C268AB
:1025F00042F00402C2600122206800F027FC1A4960
:102600002068884203D1426C42F400424264206850
:10261000884208D0B0F1804F05D01449884202D0DA
:102620001349884204D1816801F00701062903D0CB
:10263000016841F001010160284630BD94F8400076
:102640000128C0D184F840202068C26842F0080206
:10265000D0E784F841200C2901D00125ECE720685F
:10266000C26842F01002C5E7002C0140000400409F
:102670000008004070B50D0004464FF0000607D07A
:10268000042D0AD0082D0DD00C2D10D001263CE0D1
:102690002068C16821F002010DE02068C16821F0C6
:1026A000040108E02068C16821F0080103E0206807
:1026B000C16821F01001C16000222946206800F0A5
:1026C000C5FB174B41F2111120688A10984209D1BD
:1026D000036A0B4206D1036A134203D1436C23F40D
:1026E000004343642068036A0B4206D1016A114229
:1026F00003D1016821F00101016001203DB1042DE9
:1027000008D0082D09D084F84100304670BD84F807
:102710003E00FAE784F83F00F7E784F84000F4E76A
:10272000002C014070477047FEE701684A69D243B8
:1027300052050FD46FF480624A61002140F8301FC7
:10274000202242738173026942F004020261017324
:102750000120704700207047F8B50446C06A1E4645
:102760000D461746082807D0012805D010F5803FF0
:1027700002D0206B122804D12068016841F48071D6
:102780000160134600224FF001112046009600F030
:102790005DF840B120680068C00502D54FF40070B4
:1027A00020640320F8BD2069B0F5804F0ED00620CC
:1027B000216800EAD51040F0F000086133463A463F
:1027C0000B49204600F08AF878B902E005F0FE00D7
:1027D00000E0E8B221680861054933463A46891F9E
:1027E000204600F07BF80028DCD00120F8BD000076
:1027F0000800010070B516460D4604461EE020464E
:10280000FFF793FF08B1012070BD681C16D0FEF7DA
:10281000EDFF801BA84200D885B920684069C043FD
:1028200040070BD5002044F8300F20216173A073BE
:10283000216941F0200121612073E4E720684069AB
:10284000C0434007DBD4002070BD00002DE9F047F5
:10285000984617460D460446C1F30746DDF820901A
:102860002AE000BFB8F1FF3F26D0FEF7BFFFA0EB84
:102870000901414502D8B8F1000F1DD12068012E91
:1028800016D0806925EA00000004000C12D0002058
:10289000B84211D1002044F8300F20216173A07399
:1028A000216941F02001216120730120BDE8F087FA
:1028B0004069E7E70120EBE72068012E0AD0806934
:1028C00025EA00000004000C06D00020B842C9D060
:1028D0000020EBE74069F3E70120F7E72DE9F04737
:1028E000984616460D4604464FF000094FF0200A60
:1028F000C1F3074723E020684069C043400515D471
:102900002068016841F40071016021686FF4806003
:102910004861C4F8309084F83DA084F83E90216C62
:1029200041F00401216484F83C9021E0701C06D041
:10293000FEF75CFFA0EB0800B04203D816B1012FF0
:102940001FD021E02068012F15D0806925EA000002
:102950000004000C18D000BF44F8309F84F80DA08C
:1029600084F80E90216941F02001216184F80C90D7
:102970000120BDE8F087406925EA00000004000C52
:10298000EAD12068406901E02068806925EA0000FA
:102990000004000CAFD1ECE770B516460D460446B6
:1029A0001EE02046FFF7C1FE08B1012070BD681C83
:1029B00016D0FEF71BFF801BA84200D885B92068FF
:1029C0004069C04300060BD5002044F8300F202199
:1029D0006173A073216941F0200121612073E4E754
:1029E00020684069C0430006DBD4002070BD0000B1
:1029F00070B586B000241F4800940194029403949B
:102A0000816941F020018161816901F02001049117
:102A1000816941F004018161816901F0040104913F
:102A2000816941F0080181618069134E00F008005E
:102A300004900022F0213046FEF7D3FE032001254A
:102A40008DE8310069463046FEF7D6FDF020CDE92D
:102A500000050220CDE9024069463046FEF7CCFD74
:102A600038208DE8310069460448FEF7C5FD06B000
:102A700070BD00000010024000080140000C014041
:102A800010B592B000240F941C2108A81094FDF7F3
:102A9000DCFC20216846FDF7D8FC20481E49C0E92F
:102AA00000144FF6FF71C0E9024180210461C0E9C2
:102AB0000541FFF7D6FC08B172B6FEE70F940FA9E7
:102AC00016481094FFF754FB08B172B6FEE7602079
:102AD000CDE908040A940B940C940D94002208A9E3
:102AE0000E480E94FFF757FC08B172B6FEE700944B
:102AF0004FF40050CDE904400294019403946946D8
:102B000006480794FFF70AFB08B172B6FEE70348D0
:102B1000FFF7FCFB12B010BD002C0140AC00002000
:102B200010B58AB0002407941C2168460894FDF76C
:102B30008CFC16484FF08041C0E900144FF6FF713D
:102B4000C0E90241802104618161FFF78AFC08B17C
:102B500072B6FEE7079407A90C480894FFF708FB34
:102B600008B172B6FEE76020CDE9000402940022AD
:102B7000694606480494FFF70EFC08B172B6FEE7FA
:102B80000248FFF7C3FB0AB010BD0000F4000020AC
:102B9000FEE7FEE77047704710B50446818A00697A
:102BA0000122FEF71EFE012084F82400D4E9000172
:102BB000BDE81040FFF75EBD10B50446D4E9000142
:102BC000FFF7F4FCA18A00222069FEF70AFE00202C
:102BD00084F8240010BD000070B50DF1100C9CE8C5
:102BE000700080E80E008481056186820021816189
:102BF000C1610162012280F82420C8228162C28260
:102C000080F82C1001634163074B816353F8212046
:102C1000824204D022B1491CC9B20229F6D370BD48
:102C200043F8210070BD00005000002010B504469C
:102C300000F01BF8204600F01FF894F8240001284B
:102C400004D12046BDE81040FFF7B6BF10BD10B557
:102C5000044600F011F8204600F007F82046FFF780
:102C6000ABFFFEF7C3FD606310BD90F82C20818997
:102C70008068FEF7B6BD000070B50446806A4FF06C
:102C80007E51884202DB3149884200DDA162E08A40
:102C900001F090F9A16A01F0A1F92D4901F0A8F81D
:102CA00005464FF07C50854200DA05462948006809
:102CB00001F080F9294601F09BF801F05BF94FF42F
:102CC0008032904202D20021401E0BE0010C4B1CCE
:102CD000B0FBF3F0904202D34FF6FF7002E00A28F7
:102CE00000D20A2022681268136A41F211152B42A1
:102CF00007D1136AAD102B4203D1136823F00103EF
:102D0000136022681268916221680968C86261686C
:102D100079B1042912D0082921684FEA50000968C6
:102D200011D0086420680068016841F00101016069
:102D300070BD2168400809684863F3E721684008CE
:102D400009688863EEE7C863ECE700000000C84349
:102D50000000704228000020FEF7D6BE30B58FB0CC
:102D600028216846FDF771FB14210AA8FDF76DFBC9
:102D700001210804CDE900100024029402250491E9
:102D8000CDE907504FF4E01009906846FFF720F8AE
:102D900008B172B6FEE70F20CDE90A054FF4806056
:102DA000CDE90C4002210AA80E94FEF745FF002849
:102DB00001D072B6FEE70FB030BD70470148FFF793
:102DC0000CBA0000AC0000200148FFF706BA000072
:102DD000F4000020F0B50268194B1A4C1A4D4FF060
:102DE0008047984205D0B84203D0A04201D0A84203
:102DF00003D122F070064A683243984205D0B842A7
:102E000003D0A04201D0A84203D122F44074CA6882
:102E100022434C6922F08002224302608A68C26227
:102E20000A688262984201D1096901630121416106
:102E30000169C90703D0016921F001010161F0BDF9
:102E4000002C0140000400400008004010B501F0D3
:102E50001F030121046A99408C430462016A9A406D
:102E60001143016210BD000030B5036A026A22F00E
:102E7000010202624268846924F073050C682C43E5
:102E800023F002058B682B430A4DA8420BD123F097
:102E90000805CB6822F440722B434D6923F00403EC
:102EA00015438A692A434260846149684163036229
:102EB00030BD0000002C014030B5026A036A23F0E7
:102EC00010030362436884690D6824F4E64444EA0D
:102ED00005248D6822F0200242EA05120B4DA8421B
:102EE0000ED1CD6822F0800242EA05124D6923F42A
:102EF000406343EA85038D6922F0400243EA85037B
:102F00004360846149688163026230BD002C0140E6
:102F100030B5036A026A22F4807202624268C469B0
:102F200023F4007324F073050C682C438D6843EA86
:102F300005230C4DA8420ED1CD6823F4006343EA6B
:102F400005234D6922F4405242EA05128D6923F4AB
:102F5000806342EA05124260C4614968C16303624A
:102F600030BD0000002C014030B5046A026A22F432
:102F7000805202624268C3690D6823F4E64343EA63
:102F800005238D6824F4005444EA0534064DA84214
:102F900004D14D6922F4804242EA85124260C36145
:102FA00049680164046230BD002C0140FEE749001D
:102FB00050EAC12018BF04204A0D18BF40F001009C
:102FC00040F2FF72B2EB515F08BF40F002000128EF
:102FD00008BF052070470907090E002804DB00F12F
:102FE000E02080F80014704700F00F0000F1E020AE
:102FF00080F8141D704730380A2801D2012070472C
:10300000002070470748007805280AD2DFE800F062
:1030100003030507030000F007B800F053B800F001
:1030200089B870470000002010B5002211461B48E7
:1030300000F0A1F8194C143C207858B3202117480F
:1030400000F0F3F816A1154800F050F91348A168F4
:1030500000F028F915A1114800F048F901220021DB
:103060000E4800F088F82078012815D020210B4860
:1030700000F0DBF80EA1094800F038F90F48016BA9
:103080000648E16000F022F9BDE810400CA10348B9
:1030900000F02CB93E21D2E73E21E8E714000020E1
:1030A0005374657020313A200000000020636D00E9
:1030B0005374657020323A2000000000780100202F
:1030C0002073000010B500221146124800F053F89A
:1030D00011A1104800F00AF9012204210D4800F066
:1030E0004AF812484FF47A720A4C816B006BB1FBBC
:1030F000F2F1411A143C0748E16000F0E7F80CA136
:10310000044800F0F3F8E068002801D104202070A2
:1031100010BD000014000020202020202020525547
:103120004E202020202020200000000078010020D8
:103130002073000010B500221146044800F01BF86F
:10314000BDE8104002A1014800F0D0B814000020F2
:1031500020202020202053544F50202020202020A9
:103160000000000010B5012100F061F8BDE810403A
:103170000220FEF72FBA3AB1012A07D0022A09D05D
:10318000032A09D1D43102E0803100E0C031C9B254
:1031900000F04DB89431FAE7704710B5016004466D
:1031A00082803220FEF716FA3021204600F03FF8E8
:1031B0000520FEF70FFA3021204600F038F80120F4
:1031C000FEF708FA3021204600F031F80A20FEF719
:1031D00001FA2021204600F02AF80A20FEF7FAF929
:1031E0002821204600F023F80120FEF7F3F90821FA
:1031F000204600F01CF80120FEF7ECF901212046E2
:1032000000F015F80220FEF7E5F90621204600F04F
:103210000EF80120FEF7DEF90C21204600F007F839
:10322000BDE810400A20FEF7D5B900F01DB81CB566
:1032300001F0F00242F00C038DF8043042F0080275
:1032400009018DF8052041F00C028DF8062041F0AF
:1032500008018DF80710642100918188006804231B
:1032600001AAFEF78DFB1CBD1CB501F0F00242F077
:103270000D038DF8043042F0090209018DF8052094
:1032800041F00D028DF8062041F009018DF807107C
:103290006421009181880068042301AAFEF770FB75
:1032A0001CBD00001FB50446084600F013FD024691
:1032B0000B4604A16846FCF797FF6946204600F0DC
:1032C00015F81FBD25342E31660000001FB50446D9
:1032D0000A4604A16846FCF787FF6946204600F0CD
:1032E00005F81FBD25342E316400000070B50C4672
:1032F000054603E02846641CFFF7B6FF2178002945
:10330000F8D170BD0EB5FEF707FCFFF727FDFFF7FC
:103310006FFB4A484849002601604949C0E9011647
:103320004FF48041C0E9036146618661C66106626F
:10333000FEF762FA08B172B6FEE7FFF7A1FBFFF7EE
:10334000EFFB4E223D493F48FFF727FF3E4C20212F
:10335000CDE900143949102002905431234600224F
:1033600001F19000FFF738FC802100914020CDE969
:103370000140324923469C31002201F18400FFF7CD
:103380002BFC2E493148E43101F13C0588622D4C7B
:103390002F480427143CA862FEF792F8FEF744F881
:1033A00068B3042804D005281BD0062828D02DE0B7
:1033B000207802283DD0022020702248FFF7D2FE5C
:1033C000286BE0B1A86B40B1FEF710FAA96B401A68
:1033D00068632048FFF7F0FB18E01E48FFF737FC52
:1033E00014E0207803281CD0032020701548FFF734
:1033F000B9FEFEF7FBF920611648FFF7CDFB05E0AB
:10340000207848B101280AD0042803D02078032866
:1034100007D00EE026700CE00120207009E0277034
:1034200007E0FEF7E3F92169401A40F6B831884217
:10343000F5D2FFF7E7FDAFE7005400405800002049
:10344000801A0600140000200008014000002041FE
:10345000000096437801002010B500290AD00878B2
:10346000002807D005487844FDF7CEFB002801D09E
:10347000002010BD0248784410BD00000A0F000073
:10348000020F000010B591EA030F48BF83F000431C
:1034900000F13E83841A71EB030C05D2121943EB41
:1034A0000C03001B61EB0C01DFF824E14FEA11541F
:1034B000A4EB135C1EEA430F18BF9EEA445F73D06F
:1034C00023EA0E03DCF1200E21EA045143F48013B9
:1034D00032D322FA0CFE10EB0E0023FA0CFE41EB65
:1034E0000E01CCF1200E03FA0EFE10EB0E0051F18E
:1034F0000001B1F5801FCCF1200E32D201EB045156
:1035000012FA0EF2BDE8104058BF7047401C38BF99
:103510005FEA420218BF7047002814BF20F0010084
:1035200041F100014FEA410313F5001F38BF704716
:10353000A1F1C04100F0DEBA012A43EB0302ACF175
:10354000200CDCF11F0E32BF4FF0000E23FA0CF3FB
:1035500010EB030041EB0451B4EB115FD0D0A1EBB1
:10356000045101F5801149085FEA300001EB045174
:103570000ED350F1000038BF12FA0EFE08D1BDE89C
:103580001040C9E7401C38BF5FEA4202CAD1C3E716
:10359000BDE810404FEA410313F5001F38BF7047E4
:1035A000A1F1C04100F0A6BA9EEA445F08D011EA3A
:1035B0005E0FBDE8104004BF01F0004100207047DD
:1035C000BDE8104070B500F047FA00BF64FBBE3E96
:1035D0000000E0FF2DE9C04130B4DFF8A0C23CEAB2
:1035E000111418BF3CEA131400F0EC8081EA0305C3
:1035F0001CEA111444EAD57418BF1CEA131500F034
:10360000C780A4EB05044FF0004545EAC12145EA17
:10361000C32341EA505143EA525304F17F74994263
:1036200004F500344FEAC0204FEAC22208BF90429E
:1036300000F09C804FEA13650FF24016765D4FEA6A
:10364000134506FB05F7C7F1807706FB07F74FEA3E
:10365000D737A7FB03687642C8F58038A7FB06CEAC
:1036600038BFA8F1010807FB08E64FF0000EA6FBE3
:10367000028CE6FB03CEDCF1000CCEF1004E38BF2D
:10368000AEF1010EA6FB0C584FF000074FF00005FD
:10369000E6FB0E87A1FB08C6A0FB07CE16EB0E06C5
:1036A00045F10005E1FB076515F1E04E7EBFA4F58D
:1036B00080345FEA46066D4116F1800745F100054A
:1036C0004FEA17274FEA066647EA0567A6F1DE4686
:1036D000B6F1805F4FEA15251FD9384624F0010C5A
:1036E00005EBC471BCF1FE6F01EB0C1102D8F0BC0C
:1036F000BDE8008124425CBF01F5801E9EEAC47FC4
:1037000002D4F0BCBDE80081244238D4F0BCA1F161
:10371000C041BDE8004100F0EDB94FEAD22242EAD3
:1037200043524FEAD323A7FB02864FEAD02040EA58
:10373000415007FB03661EEA0E0F4FEAD12105FB3D
:10374000026658BFA6EB0056B6EB00564FEA520E83
:103750004EEAC37E18EB0E0E56EB530EBDD518EB9A
:1037600002085E417F1C55F10005B6E74FF4801555
:103770004FF000074FF000064FF00008ADE7F0BC37
:103780004FF0000001F1C04101F00041BDE80081AF
:1037900011EA0C1F0CEA131500D00CE013EA0C1F01
:1037A00000F025804FF00000F0BC81EA030101F039
:1037B0000041BDE80081F0BCBDE8004181EA0301A1
:1037C00000F098B9F0BCBDE8004170B500F044F9D4
:1037D000097EFC3E00F007B881EA03014FF00000CB
:1037E00001F00041704781EA030100F083B9F0BCA9
:1037F000BDE800414FF0000021497047FFFDFBF993
:10380000F7F5F4F2F0EEEDEBE9E8E6E4E3E1E0DE13
:10381000DDDBDAD8D7D5D4D3D1D0CFCDCCCBCAC885
:10382000C7C6C5C4C2C1C0BFBEBDBCBBBAB9B8B7AC
:10383000B6B5B4B3B2B1B0AFAEADACABAAA9A8A89F
:10384000A7A6A5A4A3A3A2A1A09F9F9E9D9C9C9B6D
:103850009A99999897979695959493939291919018
:103860008F8F8E8E8D8C8C8B8B8A898988888787A9
:103870008685858484838382828181800000FF071E
:103880000000F87F4FEA1153A3F58063D3F11E03C4
:10389000A8BFD3F1200C08DB4FF0004242EAC1225E
:1038A00052EA505232FA03F0704709420BD4102BFF
:1038B000C4BF0020704703F5787CBCF1FF3F05D002
:1038C0004FF0FF3070474FF00000704770B500F0C8
:1038D000C3F800BF4992248000207047F0E7B0FA97
:1038E00080F310FA03F10AD0C3F11D0303F58063DE
:1038F0004FEA41504FEA035202EBD12170474FF09B
:1039000000007047DFF848C170B51CEA111E1EBFE9
:103910001CEA13159EEA0C0F95EA0C0F00F06F805D
:1039200081EA030423EA4C134EEAD47E21EA4C11C7
:1039300041F4801143F48013AE44A1FB024CA0FB80
:103940000365AEF17F7E361955EB0C05A1FB034CE8
:103950004CF10003A0FB021C16EB0C06654153F171
:103960000003094218BF46F0010613F4007F0BD193
:103970004FEA03314FEA0530340341EA155140EA7A
:1039800016506FF003020AE04FEAC3214FEAC52048
:10399000F40241EA555140EA56506FF0020202EB40
:1039A0002E4201EB025585EACE710AD05FEA440C43
:1039B00018BF24F0004450F1000041F1000120EA5A
:1039C000D47040F2FE7C624500D270BDA84214BFA4
:1039D0004FF080444FF04044002E08BF0024BEF159
:1039E000806FA8BFA1F1C041BDE8704080F2828025
:1039F0004FF0000001F1C04101F0004170479EEA24
:103A00000C0F0CEA131518BF95EA0C0F06D04FF0F7
:103A1000000081EA030E0EF0004170BD00F01CF8BA
:103A20008900013E00F007B800F009B84FEA430CE6
:103A30005FEA5C5C08D081EA030100F05BB84FEA02
:103A4000410C5FEA5C5CF6D14FF000000149704721
:103A50000000FF070000F87F0EF1020E2EF0030EAB
:103A60005EF8046B364205D4012A43EB030515F5D5
:103A7000001F12D8012841EB010C1CF5001F0CD8C7
:103A80000ED14FEAD17C15F5001F0CEB4C0C0CF15C
:103A9000020C08BF4CEBD37C04E04FF0080C01E0B3
:103AA0004FEAD37C0CEB4C0526FA05F606F0070628
:103AB000B6F1040C06D20EEB860CBDE870404CF05B
:103AC000010C6047DFE80CF0090B02024FF00041E7
:103AD0004FF00000A1F5002170BD194610460128E5
:103AE00051EB010418BFD4F5001484BF002001F08D
:103AF000004170BD0808A0F500114FEA3101704780
:103B000010B591EA030F48BF83F000433FF5C2AC04
:103B1000841A71EB030C07D212198CF0004C43EBA2
:103B20000C03001B61EB0C01DFF8A4E14FEA115418
:103B3000A4EB135C1EEA430F18BF9EEA445F00F03B
:103B4000B08023EA6E03524221EA0451C3EB6E03B4
:103B500038BF5B1EDCF1200E25D322FA0CFE10EBE1
:103B60000E0043FA0CFE41EB0E01CCF1200E03FADD
:103B70000EFE10EB0E0051F10001CCF1200E29D405
:103B800012FA0EF201EB0451BDE8104058BF704725
:103B9000401C1CBFB2F1004F704700280CBF491CED
:103BA00020F00100704712EB020E43EB030218BF36
:103BB0004FF0010E4EEA4202ACF1200CDCF11E0E79
:103BC00054D943FA0CFE10EB0E0051F1FF31CCF149
:103BD0001E0ED5D50EF1010E12FA0EFE404141EB3C
:103BE000010101EB445C5FEA5C5C10D910EBDE7014
:103BF00001EB045138BFBEF1004FBDE8104018BFC3
:103C0000704700280CBF491C20F00100704730D2DB
:103C10004FEAD42C11F5001124F400641BD0B1FA42
:103C200081F20B3AA41AA41ED2F12003914030FA7B
:103C300003F31943904001EBCC71002C01EB0451CC
:103C4000BDE81040A8BF704701F1C0414FF000002F
:103C500001F000417047B0FA80F310FA03F100D18F
:103C600010BDE41A173C4805C90AE4E701EB04510A
:103C700010BD491001EB0451BDE810404FEA30007F
:103C800002E04FF0000170474A0008BF0042F8D040
:103C9000B2F5001F28BF704701F000414FF000004F
:103CA00070479EEA445F07D011EA5E0FBDE81040FE
:103CB00004BF002100207047BDE8104070B5FFF739
:103CC000CBFE00BF40DFF63E83F000411046704758
:103CD0000000E0FF43004FEAD30C4FEA3C0C4340A6
:103CE0001FBF40070CF1605113F0FE4F70471CF0EE
:103CF000006F03D100200CF0004170470CF000432E
:103D000043EA507010B540EACC0000F0E8F900BF7B
:103D1000000000924FEA0001FFF7ECBE4FF00041B7
:103D20004FF00000A1F500217047000090EA010F5C
:103D300048BF81F0004100F12482421A3CBF801A42
:103D400089184FEAD0524FF07F4C1CEA410FA2EB8A
:103D5000D15318BF9CEA026F00F03B804FF0004C3B
:103D60004CEA00204CEA012121FA03FC10EB0C0C78
:103D70001ED202F1FF325FEA1C2040EBC25038BF76
:103D800070471CF07F0F4FEA400C18BFBCF17F4F0B
:103D900038BF7047C3F12003994008BF20F00100ED
:103DA000BCF17F4F38BF7047A0F1C04000F0DDB9D3
:103DB0004FEA3C00000A40EBC25028BF1CF0FF0F46
:103DC0004FEA400CE6D018BFBCF17F4F38BF7047B8
:103DD000EAE79CEA026F05D010EA5C0F08BF00F02A
:103DE0000040704710B500F07AF900BF64FBBE3E9A
:103DF0004FF47F0C1CEAD0121EBF1CEAD11392EACA
:103E00000C0F93EA0C0F00F0858090EA010F48BF79
:103E100042F4807240F4000C41F400002CF07F4129
:103E200020F07F4000B58142A2EB03020FF2081C94
:103E3000ACEB504EC0F100009EF800E04FEA4E0E91
:103E400000FB0EFC38BF49004FEA2C1C02F5FA02B9
:103E50000CFB0EF34FEACE1E4FEA112C4FEAC121A4
:103E60000EEB635E42EB22420EFB0CFC4FEA1C534E
:103E700000FB03114FEA112C4FEA01310EFB0CFC41
:103E80004FEADC4C00FB0C11C14228BF09184CEB77
:103E900003335DF804EB10EB410143EBC250B2F584
:103EA0007C0F38BF704729D512F0F00F1CBF00F10E
:103EB000C04000F00040704700818283848586877F
:103EC00088898B8C8D8E8F919293959697999A9CD9
:103ED0009D9FA0A2A3A5A7A8AAACAEB0B2B3B5B748
:103EE000B9BCBEC0C2C5C7C9CCCED1D4D7D9DCDF1E
:103EF000E2E6E9ECF0F3F7FAFE0000004FEA400CCE
:103F00000CF1807CBCF17E4F28BF7047B0F1C040FF
:103F100000F02BB990EA010F0CEAD11348BF42F42C
:103F20008072624538BF634507D213F47F0F16D005
:103F300080EA010000F00040704710B500F0CFF8B3
:103F4000097EFC3E00F005B880EA010000F0004068
:103F5000704780EA010000F0004000F006B912F45A
:103F60007F0F04BF0248704780EA010000F0FDB8EF
:103F70000000C07FC10DD1F19E0206DB4FEA002395
:103F800043F0004323FA02F07047004207D54FEA9E
:103F90004001B1F1FE4F02D24FF00000704710B562
:103FA00000F09DF849922480002070476FEA2000BD
:103FB00070470000B0FA80F310FA03F2C3F19D03DA
:103FC0000AD0D90501EB1220530638BF704700F123
:103FD000010008BF20F00100704700004FF47F0C83
:103FE0001CEAD0121EBF1CEAD11392EA0C0F93EA0E
:103FF0000C0F00F0478090EA010F48BF42F4807236
:104000004FF0004C4CEA00204CEA012102EB030285
:10401000A0FB0113A2F50002002918BF43F0010321
:104020005B0028BF4FEA330342EB22425FEA132CC6
:104030004CEBC2502EBFBCEB436FB2F57C0F704708
:104040004FEA036CBCF1004F08BF20F00100B2F54D
:104050007C0F38BF70470BD582F0FF0212F5803F0E
:10406000C8BF704700F1C040D8BF00F000407047A3
:1040700000F5000C5FEA4C0C48BF7047B0F1C0403F
:1040800000F073B890EA010F0CEAD11348BF42F474
:104090008072624538BF634504D280EA010000F0B7
:1040A0000040704710B500F01AF800BF8900013ECB
:1040B00000F007B800F009B85FEA410C5FEA1C6C39
:1040C00008D080EA010000F050B85FEA400C5FEAD7
:1040D0001C6CF6D14FF00040A0F5800070470EF147
:1040E000020E2EF0030E5EF8044B244204D44FEA75
:1040F0004102B2F17F4F11D84FEA4003B3F17F4F35
:104100000CD80ED14FEAD07CB2F17F4F0CEB4C0CA7
:104110000CF1020C08BF4CEBD17C04E04FF0080C12
:1041200001E04FEAD17C0CEB4C0324FA03F404F0D9
:104130000704B4F1040C06D20EEB840CBDE8104069
:104140004CF0010C6047DFE80CF0070802024FF06A
:104150000040A0F5800010BD0846420018BFD2F113
:10416000807288BF00F0004010BDFF2141EAD050AE
:10417000C005704790EA010F48BF81F000413FF54C
:10418000DCAD421A04D882F00042A0EB02001144D8
:104190004FEAD0524FF07F4C1CEA410FA2EBD153B3
:1041A00018BF9CEA026F4AD04FF0004C4CEA002046
:1041B0004CEA012121FA03FCB0EB0C0C0FD412F0F5
:1041C000FE0F36D05FEA4C001DD5001240EBC25006
:1041D00038BF70471CF03F0F18BF70470BE0A2F1CB
:1041E00001025FEA1C2040EBC25038BF70471CF050
:1041F0007F0F18BF7047C3F12003994014BF401EC2
:1042000020F00100704780084FEA122308BF704772
:10421000B0FA80FCA2EB0C02CCF1280C60FA0CF096
:1042200093EA122F04BF00EBC25070474FEAC370ED
:104230007047130A5FEADC1008BF7047F6E79CEA94
:10424000026F04D010EA5C0F08BF0020704710B561
:10425000FFF745FF40DFF63E81F000407047FCF776
:1042600050BA010202030405060708090A0B0C0DE7
:104270000E0F1010000000000000000001020304F7
:1042800006070809000000000102030400080140BD
:10429000010000002C000020040100000008014083
:1042A000020000003800002005020000000C014060
:1042B000200000004400002006030000024000002F
:1042C000000000A00000000005400000000000C841
:1042D000000000000C4000000000409C00000000B6
:1042E000194000000020BCBE000000003440000067
:1042F000BFC91B8E00000004B5400000504BCFD05A
:104300006607E2CF010000006C4100003E8251AA26
:10431000DFEEA73401000000D9420000DCB5A0E2C6
:104320003A301F97FFFFFFFFB4450000FD25A0C8EE
:10433000E9A3C14FFFFFFFFFFF3F00000000008027
:1043400000000000FF3F00000000008000000000AF
:104350008C430008000000205800000028010008DD
:10436000E443000858000020C00700004401000892
:104370001C00000043000000F8FFFFFF0C000000DD
:104380000E0000000F0000002E00000004010000DD
:10439000000000000000000000000000000000001D
:1043A00000000000000000000100000010000000FC
:1043B0000000000000127A00000000000000000071
:1043C00001000000000000000000000001000000EB
:1043D00000000000000000000100000000000000DC
:0443E00000000000D9
:04000005080000ED02
:00000001FF
